{
  "contractName": "Crowdfunding",
  "abi": [
    {
      "inputs": [
        {
          "internalType": "uint256",
          "name": "",
          "type": "uint256"
        }
      ],
      "name": "campaigns",
      "outputs": [
        {
          "internalType": "address",
          "name": "owner",
          "type": "address"
        },
        {
          "internalType": "string",
          "name": "title",
          "type": "string"
        },
        {
          "internalType": "string",
          "name": "description",
          "type": "string"
        },
        {
          "internalType": "uint256",
          "name": "target",
          "type": "uint256"
        },
        {
          "internalType": "uint256",
          "name": "deadline",
          "type": "uint256"
        },
        {
          "internalType": "uint256",
          "name": "amountCollected",
          "type": "uint256"
        },
        {
          "internalType": "string",
          "name": "image",
          "type": "string"
        }
      ],
      "stateMutability": "view",
      "type": "function"
    },
    {
      "inputs": [],
      "name": "numberOfCampaigns",
      "outputs": [
        {
          "internalType": "uint256",
          "name": "",
          "type": "uint256"
        }
      ],
      "stateMutability": "view",
      "type": "function"
    },
    {
      "inputs": [
        {
          "internalType": "address",
          "name": "_owner",
          "type": "address"
        },
        {
          "internalType": "string",
          "name": "_title",
          "type": "string"
        },
        {
          "internalType": "string",
          "name": "_description",
          "type": "string"
        },
        {
          "internalType": "uint256",
          "name": "_target",
          "type": "uint256"
        },
        {
          "internalType": "uint256",
          "name": "_deadline",
          "type": "uint256"
        },
        {
          "internalType": "string",
          "name": "_image",
          "type": "string"
        }
      ],
      "name": "createCampaign",
      "outputs": [
        {
          "internalType": "uint256",
          "name": "",
          "type": "uint256"
        }
      ],
      "stateMutability": "nonpayable",
      "type": "function"
    },
    {
      "inputs": [
        {
          "internalType": "uint256",
          "name": "_id",
          "type": "uint256"
        }
      ],
      "name": "donateToCampaign",
      "outputs": [],
      "stateMutability": "payable",
      "type": "function"
    },
    {
      "inputs": [
        {
          "internalType": "uint256",
          "name": "_id",
          "type": "uint256"
        }
      ],
      "name": "getDonators",
      "outputs": [
        {
          "internalType": "address[]",
          "name": "",
          "type": "address[]"
        },
        {
          "internalType": "uint256[]",
          "name": "",
          "type": "uint256[]"
        }
      ],
      "stateMutability": "view",
      "type": "function"
    },
    {
      "inputs": [],
      "name": "getCampaigns",
      "outputs": [
        {
          "components": [
            {
              "internalType": "address",
              "name": "owner",
              "type": "address"
            },
            {
              "internalType": "string",
              "name": "title",
              "type": "string"
            },
            {
              "internalType": "string",
              "name": "description",
              "type": "string"
            },
            {
              "internalType": "uint256",
              "name": "target",
              "type": "uint256"
            },
            {
              "internalType": "uint256",
              "name": "deadline",
              "type": "uint256"
            },
            {
              "internalType": "uint256",
              "name": "amountCollected",
              "type": "uint256"
            },
            {
              "internalType": "string",
              "name": "image",
              "type": "string"
            },
            {
              "internalType": "address[]",
              "name": "donators",
              "type": "address[]"
            },
            {
              "internalType": "uint256[]",
              "name": "donations",
              "type": "uint256[]"
            }
          ],
          "internalType": "struct Crowdfunding.Campaign[]",
          "name": "",
          "type": "tuple[]"
        }
      ],
      "stateMutability": "view",
      "type": "function"
    },
    {
      "inputs": [],
      "name": "getCampaignTitlesAndImages",
      "outputs": [
        {
          "internalType": "string[]",
          "name": "",
          "type": "string[]"
        },
        {
          "internalType": "string[]",
          "name": "",
          "type": "string[]"
        }
      ],
      "stateMutability": "view",
      "type": "function"
    }
  ],
  "bytecode": "0x60806040525f6001553480156012575f5ffd5b50611bd4806100205f395ff3fe60806040526004361061006f575f3560e01c8063141961bc1161004d578063141961bc1461010557806342a4fda8146101475780639943e3a114610163578063a6b036331461019f5761006f565b806302aaf9501461007357806307ca140d1461009e5780630fa91fa9146100c8575b5f5ffd5b34801561007e575f5ffd5b506100876101c9565b604051610095929190610ec0565b60405180910390f35b3480156100a9575f5ffd5b506100b261040b565b6040516100bf9190610f0d565b60405180910390f35b3480156100d3575f5ffd5b506100ee60048036038101906100e99190610f61565b610411565b6040516100fc92919061112a565b60405180910390f35b348015610110575f5ffd5b5061012b60048036038101906101269190610f61565b610518565b60405161013e97969594939291906111b6565b60405180910390f35b610161600480360381019061015c9190610f61565b610706565b005b34801561016e575f5ffd5b506101896004803603810190610184919061138e565b610856565b6040516101969190610f0d565b60405180910390f35b3480156101aa575f5ffd5b506101b3610976565b6040516101c091906116dc565b60405180910390f35b6060805f60015467ffffffffffffffff8111156101e9576101e861126a565b5b60405190808252806020026020018201604052801561021c57816020015b60608152602001906001900390816102075790505b5090505f60015467ffffffffffffffff81111561023c5761023b61126a565b5b60405190808252806020026020018201604052801561026f57816020015b606081526020019060019003908161025a5790505b5090505f5f90505b6001548110156103fe575f5f8281526020019081526020015f20600101805461029f90611729565b80601f01602080910402602001604051908101604052809291908181526020018280546102cb90611729565b80156103165780601f106102ed57610100808354040283529160200191610316565b820191905f5260205f20905b8154815290600101906020018083116102f957829003601f168201915b505050505083828151811061032e5761032d611759565b5b60200260200101819052505f5f8281526020019081526020015f20600601805461035790611729565b80601f016020809104026020016040519081016040528092919081815260200182805461038390611729565b80156103ce5780601f106103a5576101008083540402835291602001916103ce565b820191905f5260205f20905b8154815290600101906020018083116103b157829003601f168201915b50505050508282815181106103e6576103e5611759565b5b60200260200101819052508080600101915050610277565b5081819350935050509091565b60015481565b6060805f5f8481526020019081526020015f206007015f5f8581526020019081526020015f20600801818054806020026020016040519081016040528092919081815260200182805480156104b857602002820191905f5260205f20905b815f9054906101000a900473ffffffffffffffffffffffffffffffffffffffff1673ffffffffffffffffffffffffffffffffffffffff168152602001906001019080831161046f575b505050505091508080548060200260200160405190810160405280929190818152602001828054801561050857602002820191905f5260205f20905b8154815260200190600101908083116104f4575b5050505050905091509150915091565b5f602052805f5260405f205f91509050805f015f9054906101000a900473ffffffffffffffffffffffffffffffffffffffff169080600101805461055b90611729565b80601f016020809104026020016040519081016040528092919081815260200182805461058790611729565b80156105d25780601f106105a9576101008083540402835291602001916105d2565b820191905f5260205f20905b8154815290600101906020018083116105b557829003601f168201915b5050505050908060020180546105e790611729565b80601f016020809104026020016040519081016040528092919081815260200182805461061390611729565b801561065e5780601f106106355761010080835404028352916020019161065e565b820191905f5260205f20905b81548152906001019060200180831161064157829003601f168201915b50505050509080600301549080600401549080600501549080600601805461068590611729565b80601f01602080910402602001604051908101604052809291908181526020018280546106b190611729565b80156106fc5780601f106106d3576101008083540402835291602001916106fc565b820191905f5260205f20905b8154815290600101906020018083116106df57829003601f168201915b5050505050905087565b5f3490505f5f5f8481526020019081526020015f2090508060070133908060018154018082558091505060019003905f5260205f20015f9091909190916101000a81548173ffffffffffffffffffffffffffffffffffffffff021916908373ffffffffffffffffffffffffffffffffffffffff1602179055508060080182908060018154018082558091505060019003905f5260205f20015f90919091909150555f815f015f9054906101000a900473ffffffffffffffffffffffffffffffffffffffff1673ffffffffffffffffffffffffffffffffffffffff16836040516107ee906117b3565b5f6040518083038185875af1925050503d805f8114610828576040519150601f19603f3d011682016040523d82523d5f602084013e61082d565b606091505b5050905080156108505782826005015461084791906117f4565b82600501819055505b50505050565b5f5f5f5f60015481526020019081526020015f209050428160040154106108b2576040517f08c379a00000000000000000000000000000000000000000000000000000000081526004016108a990611897565b60405180910390fd5b87815f015f6101000a81548173ffffffffffffffffffffffffffffffffffffffff021916908373ffffffffffffffffffffffffffffffffffffffff160217905550868160010190816109049190611a55565b50858160020190816109169190611a55565b508481600301819055508381600401819055505f8160050181905550828160060190816109439190611a55565b5060015f81548092919061095690611b24565b9190505550600180546109699190611b6b565b9150509695505050505050565b60605f60015467ffffffffffffffff8111156109955761099461126a565b5b6040519080825280602002602001820160405280156109ce57816020015b6109bb610d37565b8152602001906001900390816109b35790505b5090505f5f90505b600154811015610d2f575f5f5f8381526020019081526020015f20905080604051806101200160405290815f82015f9054906101000a900473ffffffffffffffffffffffffffffffffffffffff1673ffffffffffffffffffffffffffffffffffffffff1673ffffffffffffffffffffffffffffffffffffffff168152602001600182018054610a6490611729565b80601f0160208091040260200160405190810160405280929190818152602001828054610a9090611729565b8015610adb5780601f10610ab257610100808354040283529160200191610adb565b820191905f5260205f20905b815481529060010190602001808311610abe57829003601f168201915b50505050508152602001600282018054610af490611729565b80601f0160208091040260200160405190810160405280929190818152602001828054610b2090611729565b8015610b6b5780601f10610b4257610100808354040283529160200191610b6b565b820191905f5260205f20905b815481529060010190602001808311610b4e57829003601f168201915b50505050508152602001600382015481526020016004820154815260200160058201548152602001600682018054610ba290611729565b80601f0160208091040260200160405190810160405280929190818152602001828054610bce90611729565b8015610c195780601f10610bf057610100808354040283529160200191610c19565b820191905f5260205f20905b815481529060010190602001808311610bfc57829003601f168201915b5050505050815260200160078201805480602002602001604051908101604052809291908181526020018280548015610ca457602002820191905f5260205f20905b815f9054906101000a900473ffffffffffffffffffffffffffffffffffffffff1673ffffffffffffffffffffffffffffffffffffffff1681526020019060010190808311610c5b575b5050505050815260200160088201805480602002602001604051908101604052809291908181526020018280548015610cfa57602002820191905f5260205f20905b815481526020019060010190808311610ce6575b505050505081525050838381518110610d1657610d15611759565b5b60200260200101819052505080806001019150506109d6565b508091505090565b6040518061012001604052805f73ffffffffffffffffffffffffffffffffffffffff16815260200160608152602001606081526020015f81526020015f81526020015f81526020016060815260200160608152602001606081525090565b5f81519050919050565b5f82825260208201905092915050565b5f819050602082019050919050565b5f81519050919050565b5f82825260208201905092915050565b8281835e5f83830152505050565b5f601f19601f8301169050919050565b5f610e0082610dbe565b610e0a8185610dc8565b9350610e1a818560208601610dd8565b610e2381610de6565b840191505092915050565b5f610e398383610df6565b905092915050565b5f602082019050919050565b5f610e5782610d95565b610e618185610d9f565b935083602082028501610e7385610daf565b805f5b85811015610eae5784840389528151610e8f8582610e2e565b9450610e9a83610e41565b925060208a01995050600181019050610e76565b50829750879550505050505092915050565b5f6040820190508181035f830152610ed88185610e4d565b90508181036020830152610eec8184610e4d565b90509392505050565b5f819050919050565b610f0781610ef5565b82525050565b5f602082019050610f205f830184610efe565b92915050565b5f604051905090565b5f5ffd5b5f5ffd5b610f4081610ef5565b8114610f4a575f5ffd5b50565b5f81359050610f5b81610f37565b92915050565b5f60208284031215610f7657610f75610f2f565b5b5f610f8384828501610f4d565b91505092915050565b5f81519050919050565b5f82825260208201905092915050565b5f819050602082019050919050565b5f73ffffffffffffffffffffffffffffffffffffffff82169050919050565b5f610fde82610fb5565b9050919050565b610fee81610fd4565b82525050565b5f610fff8383610fe5565b60208301905092915050565b5f602082019050919050565b5f61102182610f8c565b61102b8185610f96565b935061103683610fa6565b805f5b8381101561106657815161104d8882610ff4565b97506110588361100b565b925050600181019050611039565b5085935050505092915050565b5f81519050919050565b5f82825260208201905092915050565b5f819050602082019050919050565b6110a581610ef5565b82525050565b5f6110b6838361109c565b60208301905092915050565b5f602082019050919050565b5f6110d882611073565b6110e2818561107d565b93506110ed8361108d565b805f5b8381101561111d57815161110488826110ab565b975061110f836110c2565b9250506001810190506110f0565b5085935050505092915050565b5f6040820190508181035f8301526111428185611017565b9050818103602083015261115681846110ce565b90509392505050565b61116881610fd4565b82525050565b5f82825260208201905092915050565b5f61118882610dbe565b611192818561116e565b93506111a2818560208601610dd8565b6111ab81610de6565b840191505092915050565b5f60e0820190506111c95f83018a61115f565b81810360208301526111db818961117e565b905081810360408301526111ef818861117e565b90506111fe6060830187610efe565b61120b6080830186610efe565b61121860a0830185610efe565b81810360c083015261122a818461117e565b905098975050505050505050565b61124181610fd4565b811461124b575f5ffd5b50565b5f8135905061125c81611238565b92915050565b5f5ffd5b5f5ffd5b7f4e487b71000000000000000000000000000000000000000000000000000000005f52604160045260245ffd5b6112a082610de6565b810181811067ffffffffffffffff821117156112bf576112be61126a565b5b80604052505050565b5f6112d1610f26565b90506112dd8282611297565b919050565b5f67ffffffffffffffff8211156112fc576112fb61126a565b5b61130582610de6565b9050602081019050919050565b828183375f83830152505050565b5f61133261132d846112e2565b6112c8565b90508281526020810184848401111561134e5761134d611266565b5b611359848285611312565b509392505050565b5f82601f83011261137557611374611262565b5b8135611385848260208601611320565b91505092915050565b5f5f5f5f5f5f60c087890312156113a8576113a7610f2f565b5b5f6113b589828a0161124e565b965050602087013567ffffffffffffffff8111156113d6576113d5610f33565b5b6113e289828a01611361565b955050604087013567ffffffffffffffff81111561140357611402610f33565b5b61140f89828a01611361565b945050606061142089828a01610f4d565b935050608061143189828a01610f4d565b92505060a087013567ffffffffffffffff81111561145257611451610f33565b5b61145e89828a01611361565b9150509295509295509295565b5f81519050919050565b5f82825260208201905092915050565b5f819050602082019050919050565b5f82825260208201905092915050565b5f6114ae82610f8c565b6114b88185611494565b93506114c383610fa6565b805f5b838110156114f35781516114da8882610ff4565b97506114e58361100b565b9250506001810190506114c6565b5085935050505092915050565b5f82825260208201905092915050565b5f61151a82611073565b6115248185611500565b935061152f8361108d565b805f5b8381101561155f57815161154688826110ab565b9750611551836110c2565b925050600181019050611532565b5085935050505092915050565b5f61012083015f8301516115825f860182610fe5565b506020830151848203602086015261159a8282610df6565b915050604083015184820360408601526115b48282610df6565b91505060608301516115c9606086018261109c565b5060808301516115dc608086018261109c565b5060a08301516115ef60a086018261109c565b5060c083015184820360c08601526116078282610df6565b91505060e083015184820360e086015261162182826114a4565b91505061010083015184820361010086015261163d8282611510565b9150508091505092915050565b5f611655838361156c565b905092915050565b5f602082019050919050565b5f6116738261146b565b61167d8185611475565b93508360208202850161168f85611485565b805f5b858110156116ca57848403895281516116ab858261164a565b94506116b68361165d565b925060208a01995050600181019050611692565b50829750879550505050505092915050565b5f6020820190508181035f8301526116f48184611669565b905092915050565b7f4e487b71000000000000000000000000000000000000000000000000000000005f52602260045260245ffd5b5f600282049050600182168061174057607f821691505b602082108103611753576117526116fc565b5b50919050565b7f4e487b71000000000000000000000000000000000000000000000000000000005f52603260045260245ffd5b5f81905092915050565b50565b5f61179e5f83611786565b91506117a982611790565b5f82019050919050565b5f6117bd82611793565b9150819050919050565b7f4e487b71000000000000000000000000000000000000000000000000000000005f52601160045260245ffd5b5f6117fe82610ef5565b915061180983610ef5565b9250828201905080821115611821576118206117c7565b5b92915050565b7f54686520646561646c696e652073686f756c642062652061206461746520696e5f8201527f20746865206675747572652e0000000000000000000000000000000000000000602082015250565b5f611881602c8361116e565b915061188c82611827565b604082019050919050565b5f6020820190508181035f8301526118ae81611875565b9050919050565b5f819050815f5260205f209050919050565b5f6020601f8301049050919050565b5f82821b905092915050565b5f600883026119117fffffffffffffffffffffffffffffffffffffffffffffffffffffffffffffffff826118d6565b61191b86836118d6565b95508019841693508086168417925050509392505050565b5f819050919050565b5f61195661195161194c84610ef5565b611933565b610ef5565b9050919050565b5f819050919050565b61196f8361193c565b61198361197b8261195d565b8484546118e2565b825550505050565b5f5f905090565b61199a61198b565b6119a5818484611966565b505050565b5b818110156119c8576119bd5f82611992565b6001810190506119ab565b5050565b601f821115611a0d576119de816118b5565b6119e7846118c7565b810160208510156119f6578190505b611a0a611a02856118c7565b8301826119aa565b50505b505050565b5f82821c905092915050565b5f611a2d5f1984600802611a12565b1980831691505092915050565b5f611a458383611a1e565b9150826002028217905092915050565b611a5e82610dbe565b67ffffffffffffffff811115611a7757611a7661126a565b5b611a818254611729565b611a8c8282856119cc565b5f60209050601f831160018114611abd575f8415611aab578287015190505b611ab58582611a3a565b865550611b1c565b601f198416611acb866118b5565b5f5b82811015611af257848901518255600182019150602085019450602081019050611acd565b86831015611b0f5784890151611b0b601f891682611a1e565b8355505b6001600288020188555050505b505050505050565b5f611b2e82610ef5565b91507fffffffffffffffffffffffffffffffffffffffffffffffffffffffffffffffff8203611b6057611b5f6117c7565b5b600182019050919050565b5f611b7582610ef5565b9150611b8083610ef5565b9250828203905081811115611b9857611b976117c7565b5b9291505056fea264697066735822122056c3ae170fbb650a1d937ac27fcae2c258a97e5568e8d3204dbc0dc474d570d364736f6c634300081b0033",
  "immutableReferences": {},
  "source": "// SPDX-License-Identifier: MIT\npragma solidity ^0.8.27;\n\ncontract Crowdfunding {\n    struct Campaign {\n        address owner;\n        string title;\n        string description;\n        uint256 target;\n        uint256 deadline;\n        uint256 amountCollected;\n        string image;\n        address[] donators;\n        uint256[] donations;\n    }\n\n    mapping(uint256 => Campaign) public campaigns;\n\n    uint256 public numberOfCampaigns = 0;\n\n    function createCampaign(address _owner, string memory _title, string memory _description, uint256 _target, uint256 _deadline, string memory _image) public returns (uint256) {\n        Campaign storage campaign = campaigns[numberOfCampaigns];\n\n        require(campaign.deadline < block.timestamp, \"The deadline should be a date in the future.\");\n\n        campaign.owner = _owner;\n        campaign.title = _title;\n        campaign.description = _description;\n        campaign.target = _target;\n        campaign.deadline = _deadline;\n        campaign.amountCollected = 0;\n        campaign.image = _image;\n\n        numberOfCampaigns++;\n\n        return numberOfCampaigns - 1;\n    }\n\n    function donateToCampaign(uint256 _id) public payable {\n        uint256 amount = msg.value;\n\n        Campaign storage campaign = campaigns[_id];\n\n        campaign.donators.push(msg.sender);\n        campaign.donations.push(amount);\n\n        (bool sent,) = payable(campaign.owner).call{value: amount}(\"\");\n\n        if(sent) {\n            campaign.amountCollected = campaign.amountCollected + amount;\n        }\n    }\n\n    function getDonators(uint256 _id) view public returns (address[] memory, uint256[] memory) {\n        return (campaigns[_id].donators, campaigns[_id].donations);\n    }\n\n function getCampaigns() public view returns (Campaign[] memory) {\n        Campaign[] memory allCampaigns = new Campaign[](numberOfCampaigns);\n\n        for(uint i = 0; i < numberOfCampaigns; i++) {\n            Campaign storage item = campaigns[i];\n\n            allCampaigns[i] = item;\n        }\n\n        return allCampaigns;\n    }\n\nfunction getCampaignTitlesAndImages() public view returns (string[] memory, string[] memory) {\n    string[] memory titles = new string[](numberOfCampaigns);\n    string[] memory images = new string[](numberOfCampaigns);\n\n    for (uint i = 0; i < numberOfCampaigns; i++) {\n        titles[i] = campaigns[i].title;\n        images[i] = campaigns[i].image;\n    }\n\n    return (titles, images);\n}\n\n\n}",
  "sourcePath": "C:\\Users\\pauli\\Documents\\UTN\\crowfounding-dapp-pepitos\\truffle\\contracts\\SimpleStorage.sol",
  "compiler": {
    "name": "solc",
    "version": "0.8.27+commit.40a35a09.Emscripten.clang"
  },
  "schemaVersion": "3.4.16",
  "updatedAt": "2024-11-22T14:56:51.375Z",
  "devdoc": {
    "kind": "dev",
    "methods": {},
    "version": 1
  },
  "userdoc": {
    "kind": "user",
    "methods": {},
    "version": 1
  }
}